{"abi":[{"inputs":[{"internalType":"string","name":"_name","type":"string"},{"internalType":"uint256","name":"_favoritenumber","type":"uint256"}],"name":"addperson","outputs":[],"stateMutability":"nonpayable","type":"function"},{"inputs":[],"name":"favoritenumber","outputs":[{"internalType":"uint256","name":"","type":"uint256"}],"stateMutability":"view","type":"function"},{"inputs":[{"internalType":"string","name":"","type":"string"}],"name":"nametofavnum","outputs":[{"internalType":"uint256","name":"","type":"uint256"}],"stateMutability":"view","type":"function"},{"inputs":[{"internalType":"uint256","name":"","type":"uint256"}],"name":"people","outputs":[{"internalType":"uint256","name":"favorite","type":"uint256"},{"internalType":"string","name":"name","type":"string"}],"stateMutability":"view","type":"function"},{"inputs":[],"name":"retrive","outputs":[{"internalType":"uint256","name":"","type":"uint256"}],"stateMutability":"view","type":"function"},{"inputs":[{"internalType":"uint256","name":"_favoritenumber","type":"uint256"}],"name":"store","outputs":[],"stateMutability":"nonpayable","type":"function"}],"bytecode":"608060405234801561001057600080fd5b50610543806100206000396000f3fe608060405234801561001057600080fd5b50600436106100625760003560e01c80632d993bb1146100675780636057361d146100855780639e7a13ad1461009a578063a6b7fc5b146100bb578063c9de10ff146100c3578063e1b3202a146100d6575b600080fd5b61006f6100e9565b60405161007c9190610449565b60405180910390f35b610098610093366004610415565b6100ef565b005b6100ad6100a8366004610415565b6100f4565b60405161007c929190610452565b61006f6101ac565b61006f6100d1366004610397565b6101b2565b6100986100e43660046103d2565b6101cf565b60005481565b600055565b6001818154811061010457600080fd5b60009182526020909120600290910201805460018201805491935090610129906104bc565b80601f0160208091040260200160405190810160405280929190818152602001828054610155906104bc565b80156101a25780601f10610177576101008083540402835291602001916101a2565b820191906000526020600020905b81548152906001019060200180831161018557829003601f168201915b5050505050905082565b60005490565b805160208183018101805160028252928201919093012091525481565b604080518082019091528181526020808201848152600180548082018255600091909152835160029091027fb10e2d527612073b26eecdfd717e6a320cf44b4afac2b0732d9fcbe2b7fa0cf68101918255915180519193610255937fb10e2d527612073b26eecdfd717e6a320cf44b4afac2b0732d9fcbe2b7fa0cf7019291019061027d565b50505080600283604051610269919061042d565b908152604051908190036020019020555050565b828054610289906104bc565b90600052602060002090601f0160209004810192826102ab57600085556102f1565b82601f106102c457805160ff19168380011785556102f1565b828001600101855582156102f1579182015b828111156102f15782518255916020019190600101906102d6565b506102fd929150610301565b5090565b5b808211156102fd5760008155600101610302565b600082601f830112610326578081fd5b813567ffffffffffffffff80821115610341576103416104f7565b604051601f8301601f191681016020018281118282101715610365576103656104f7565b60405282815284830160200186101561037c578384fd5b82602086016020830137918201602001929092529392505050565b6000602082840312156103a8578081fd5b813567ffffffffffffffff8111156103be578182fd5b6103ca84828501610316565b949350505050565b600080604083850312156103e4578081fd5b823567ffffffffffffffff8111156103fa578182fd5b61040685828601610316565b95602094909401359450505050565b600060208284031215610426578081fd5b5035919050565b6000825161043f81846020870161048c565b9190910192915050565b90815260200190565b600083825260406020830152825180604084015261047781606085016020870161048c565b601f01601f1916919091016060019392505050565b60005b838110156104a757818101518382015260200161048f565b838111156104b6576000848401525b50505050565b6002810460018216806104d057607f821691505b602082108114156104f157634e487b7160e01b600052602260045260246000fd5b50919050565b634e487b7160e01b600052604160045260246000fdfea26469706673582212203097068b995a0555ac1d9d38e0f825fc652a4988c08fa9d11f96d0744fd57fc964736f6c63430008000033","bytecodeSha1":"856ca1b1776b91bb47ef24e9b91943303e5feca6","compiler":{"evm_version":"istanbul","optimizer":{"enabled":true,"runs":200},"version":"0.8.0+commit.c7dfd78e"},"contractName":"SimpleStorage","language":"Solidity","natspec":{"kind":"dev","methods":{},"version":1},"opcodes":"PUSH1 0x80 PUSH1 0x40 MSTORE CALLVALUE DUP1 ISZERO PUSH2 0x10 JUMPI PUSH1 0x0 DUP1 REVERT JUMPDEST POP PUSH1 0x4 CALLDATASIZE LT PUSH2 0x62 JUMPI PUSH1 0x0 CALLDATALOAD PUSH1 0xE0 SHR DUP1 PUSH4 0x2D993BB1 EQ PUSH2 0x67 JUMPI DUP1 PUSH4 0x6057361D EQ PUSH2 0x85 JUMPI DUP1 PUSH4 0x9E7A13AD EQ PUSH2 0x9A JUMPI DUP1 PUSH4 0xA6B7FC5B EQ PUSH2 0xBB JUMPI DUP1 PUSH4 0xC9DE10FF EQ PUSH2 0xC3 JUMPI DUP1 PUSH4 0xE1B3202A EQ PUSH2 0xD6 JUMPI JUMPDEST PUSH1 0x0 DUP1 REVERT JUMPDEST PUSH2 0x6F PUSH2 0xE9 JUMP JUMPDEST PUSH1 0x40 MLOAD PUSH2 0x7C SWAP2 SWAP1 PUSH2 0x449 JUMP JUMPDEST PUSH1 0x40 MLOAD DUP1 SWAP2 SUB SWAP1 RETURN JUMPDEST PUSH2 0x98 PUSH2 0x93 CALLDATASIZE PUSH1 0x4 PUSH2 0x415 JUMP JUMPDEST PUSH2 0xEF JUMP JUMPDEST STOP JUMPDEST PUSH2 0xAD PUSH2 0xA8 CALLDATASIZE PUSH1 0x4 PUSH2 0x415 JUMP JUMPDEST PUSH2 0xF4 JUMP JUMPDEST PUSH1 0x40 MLOAD PUSH2 0x7C SWAP3 SWAP2 SWAP1 PUSH2 0x452 JUMP JUMPDEST PUSH2 0x6F PUSH2 0x1AC JUMP JUMPDEST PUSH2 0x6F PUSH2 0xD1 CALLDATASIZE PUSH1 0x4 PUSH2 0x397 JUMP JUMPDEST PUSH2 0x1B2 JUMP JUMPDEST PUSH2 0x98 PUSH2 0xE4 CALLDATASIZE PUSH1 0x4 PUSH2 0x3D2 JUMP JUMPDEST PUSH2 0x1CF JUMP JUMPDEST PUSH1 0x0 SLOAD DUP2 JUMP JUMPDEST PUSH1 0x0 SSTORE JUMP JUMPDEST PUSH1 0x1 DUP2 DUP2 SLOAD DUP2 LT PUSH2 0x104 JUMPI PUSH1 0x0 DUP1 REVERT JUMPDEST PUSH1 0x0 SWAP2 DUP3 MSTORE PUSH1 0x20 SWAP1 SWAP2 KECCAK256 PUSH1 0x2 SWAP1 SWAP2 MUL ADD DUP1 SLOAD PUSH1 0x1 DUP3 ADD DUP1 SLOAD SWAP2 SWAP4 POP SWAP1 PUSH2 0x129 SWAP1 PUSH2 0x4BC JUMP JUMPDEST DUP1 PUSH1 0x1F ADD PUSH1 0x20 DUP1 SWAP2 DIV MUL PUSH1 0x20 ADD PUSH1 0x40 MLOAD SWAP1 DUP2 ADD PUSH1 0x40 MSTORE DUP1 SWAP3 SWAP2 SWAP1 DUP2 DUP2 MSTORE PUSH1 0x20 ADD DUP3 DUP1 SLOAD PUSH2 0x155 SWAP1 PUSH2 0x4BC JUMP JUMPDEST DUP1 ISZERO PUSH2 0x1A2 JUMPI DUP1 PUSH1 0x1F LT PUSH2 0x177 JUMPI PUSH2 0x100 DUP1 DUP4 SLOAD DIV MUL DUP4 MSTORE SWAP2 PUSH1 0x20 ADD SWAP2 PUSH2 0x1A2 JUMP JUMPDEST DUP3 ADD SWAP2 SWAP1 PUSH1 0x0 MSTORE PUSH1 0x20 PUSH1 0x0 KECCAK256 SWAP1 JUMPDEST DUP2 SLOAD DUP2 MSTORE SWAP1 PUSH1 0x1 ADD SWAP1 PUSH1 0x20 ADD DUP1 DUP4 GT PUSH2 0x185 JUMPI DUP3 SWAP1 SUB PUSH1 0x1F AND DUP3 ADD SWAP2 JUMPDEST POP POP POP POP POP SWAP1 POP DUP3 JUMP JUMPDEST PUSH1 0x0 SLOAD SWAP1 JUMP JUMPDEST DUP1 MLOAD PUSH1 0x20 DUP2 DUP4 ADD DUP2 ADD DUP1 MLOAD PUSH1 0x2 DUP3 MSTORE SWAP3 DUP3 ADD SWAP2 SWAP1 SWAP4 ADD KECCAK256 SWAP2 MSTORE SLOAD DUP2 JUMP JUMPDEST PUSH1 0x40 DUP1 MLOAD DUP1 DUP3 ADD SWAP1 SWAP2 MSTORE DUP2 DUP2 MSTORE PUSH1 0x20 DUP1 DUP3 ADD DUP5 DUP2 MSTORE PUSH1 0x1 DUP1 SLOAD DUP1 DUP3 ADD DUP3 SSTORE PUSH1 0x0 SWAP2 SWAP1 SWAP2 MSTORE DUP4 MLOAD PUSH1 0x2 SWAP1 SWAP2 MUL PUSH32 0xB10E2D527612073B26EECDFD717E6A320CF44B4AFAC2B0732D9FCBE2B7FA0CF6 DUP2 ADD SWAP2 DUP3 SSTORE SWAP2 MLOAD DUP1 MLOAD SWAP2 SWAP4 PUSH2 0x255 SWAP4 PUSH32 0xB10E2D527612073B26EECDFD717E6A320CF44B4AFAC2B0732D9FCBE2B7FA0CF7 ADD SWAP3 SWAP2 ADD SWAP1 PUSH2 0x27D JUMP JUMPDEST POP POP POP DUP1 PUSH1 0x2 DUP4 PUSH1 0x40 MLOAD PUSH2 0x269 SWAP2 SWAP1 PUSH2 0x42D JUMP JUMPDEST SWAP1 DUP2 MSTORE PUSH1 0x40 MLOAD SWAP1 DUP2 SWAP1 SUB PUSH1 0x20 ADD SWAP1 KECCAK256 SSTORE POP POP JUMP JUMPDEST DUP3 DUP1 SLOAD PUSH2 0x289 SWAP1 PUSH2 0x4BC JUMP JUMPDEST SWAP1 PUSH1 0x0 MSTORE PUSH1 0x20 PUSH1 0x0 KECCAK256 SWAP1 PUSH1 0x1F ADD PUSH1 0x20 SWAP1 DIV DUP2 ADD SWAP3 DUP3 PUSH2 0x2AB JUMPI PUSH1 0x0 DUP6 SSTORE PUSH2 0x2F1 JUMP JUMPDEST DUP3 PUSH1 0x1F LT PUSH2 0x2C4 JUMPI DUP1 MLOAD PUSH1 0xFF NOT AND DUP4 DUP1 ADD OR DUP6 SSTORE PUSH2 0x2F1 JUMP JUMPDEST DUP3 DUP1 ADD PUSH1 0x1 ADD DUP6 SSTORE DUP3 ISZERO PUSH2 0x2F1 JUMPI SWAP2 DUP3 ADD JUMPDEST DUP3 DUP2 GT ISZERO PUSH2 0x2F1 JUMPI DUP3 MLOAD DUP3 SSTORE SWAP2 PUSH1 0x20 ADD SWAP2 SWAP1 PUSH1 0x1 ADD SWAP1 PUSH2 0x2D6 JUMP JUMPDEST POP PUSH2 0x2FD SWAP3 SWAP2 POP PUSH2 0x301 JUMP JUMPDEST POP SWAP1 JUMP JUMPDEST JUMPDEST DUP1 DUP3 GT ISZERO PUSH2 0x2FD JUMPI PUSH1 0x0 DUP2 SSTORE PUSH1 0x1 ADD PUSH2 0x302 JUMP JUMPDEST PUSH1 0x0 DUP3 PUSH1 0x1F DUP4 ADD SLT PUSH2 0x326 JUMPI DUP1 DUP2 REVERT JUMPDEST DUP2 CALLDATALOAD PUSH8 0xFFFFFFFFFFFFFFFF DUP1 DUP3 GT ISZERO PUSH2 0x341 JUMPI PUSH2 0x341 PUSH2 0x4F7 JUMP JUMPDEST PUSH1 0x40 MLOAD PUSH1 0x1F DUP4 ADD PUSH1 0x1F NOT AND DUP2 ADD PUSH1 0x20 ADD DUP3 DUP2 GT DUP3 DUP3 LT OR ISZERO PUSH2 0x365 JUMPI PUSH2 0x365 PUSH2 0x4F7 JUMP JUMPDEST PUSH1 0x40 MSTORE DUP3 DUP2 MSTORE DUP5 DUP4 ADD PUSH1 0x20 ADD DUP7 LT ISZERO PUSH2 0x37C JUMPI DUP4 DUP5 REVERT JUMPDEST DUP3 PUSH1 0x20 DUP7 ADD PUSH1 0x20 DUP4 ADD CALLDATACOPY SWAP2 DUP3 ADD PUSH1 0x20 ADD SWAP3 SWAP1 SWAP3 MSTORE SWAP4 SWAP3 POP POP POP JUMP JUMPDEST PUSH1 0x0 PUSH1 0x20 DUP3 DUP5 SUB SLT ISZERO PUSH2 0x3A8 JUMPI DUP1 DUP2 REVERT JUMPDEST DUP2 CALLDATALOAD PUSH8 0xFFFFFFFFFFFFFFFF DUP2 GT ISZERO PUSH2 0x3BE JUMPI DUP2 DUP3 REVERT JUMPDEST PUSH2 0x3CA DUP5 DUP3 DUP6 ADD PUSH2 0x316 JUMP JUMPDEST SWAP5 SWAP4 POP POP POP POP JUMP JUMPDEST PUSH1 0x0 DUP1 PUSH1 0x40 DUP4 DUP6 SUB SLT ISZERO PUSH2 0x3E4 JUMPI DUP1 DUP2 REVERT JUMPDEST DUP3 CALLDATALOAD PUSH8 0xFFFFFFFFFFFFFFFF DUP2 GT ISZERO PUSH2 0x3FA JUMPI DUP2 DUP3 REVERT JUMPDEST PUSH2 0x406 DUP6 DUP3 DUP7 ADD PUSH2 0x316 JUMP JUMPDEST SWAP6 PUSH1 0x20 SWAP5 SWAP1 SWAP5 ADD CALLDATALOAD SWAP5 POP POP POP POP JUMP JUMPDEST PUSH1 0x0 PUSH1 0x20 DUP3 DUP5 SUB SLT ISZERO PUSH2 0x426 JUMPI DUP1 DUP2 REVERT JUMPDEST POP CALLDATALOAD SWAP2 SWAP1 POP JUMP JUMPDEST PUSH1 0x0 DUP3 MLOAD PUSH2 0x43F DUP2 DUP5 PUSH1 0x20 DUP8 ADD PUSH2 0x48C JUMP JUMPDEST SWAP2 SWAP1 SWAP2 ADD SWAP3 SWAP2 POP POP JUMP JUMPDEST SWAP1 DUP2 MSTORE PUSH1 0x20 ADD SWAP1 JUMP JUMPDEST PUSH1 0x0 DUP4 DUP3 MSTORE PUSH1 0x40 PUSH1 0x20 DUP4 ADD MSTORE DUP3 MLOAD DUP1 PUSH1 0x40 DUP5 ADD MSTORE PUSH2 0x477 DUP2 PUSH1 0x60 DUP6 ADD PUSH1 0x20 DUP8 ADD PUSH2 0x48C JUMP JUMPDEST PUSH1 0x1F ADD PUSH1 0x1F NOT AND SWAP2 SWAP1 SWAP2 ADD PUSH1 0x60 ADD SWAP4 SWAP3 POP POP POP JUMP JUMPDEST PUSH1 0x0 JUMPDEST DUP4 DUP2 LT ISZERO PUSH2 0x4A7 JUMPI DUP2 DUP2 ADD MLOAD DUP4 DUP3 ADD MSTORE PUSH1 0x20 ADD PUSH2 0x48F JUMP JUMPDEST DUP4 DUP2 GT ISZERO PUSH2 0x4B6 JUMPI PUSH1 0x0 DUP5 DUP5 ADD MSTORE JUMPDEST POP POP POP POP JUMP JUMPDEST PUSH1 0x2 DUP2 DIV PUSH1 0x1 DUP3 AND DUP1 PUSH2 0x4D0 JUMPI PUSH1 0x7F DUP3 AND SWAP2 POP JUMPDEST PUSH1 0x20 DUP3 LT DUP2 EQ ISZERO PUSH2 0x4F1 JUMPI PUSH4 0x4E487B71 PUSH1 0xE0 SHL PUSH1 0x0 MSTORE PUSH1 0x22 PUSH1 0x4 MSTORE PUSH1 0x24 PUSH1 0x0 REVERT JUMPDEST POP SWAP2 SWAP1 POP JUMP JUMPDEST PUSH4 0x4E487B71 PUSH1 0xE0 SHL PUSH1 0x0 MSTORE PUSH1 0x41 PUSH1 0x4 MSTORE PUSH1 0x24 PUSH1 0x0 REVERT INVALID LOG2 PUSH5 0x6970667358 0x22 SLT KECCAK256 ADDRESS SWAP8 MOD DUP12 SWAP10 GAS SDIV SSTORE 0xAC SAR SWAP14 CODESIZE 0xE0 0xF8 0x25 0xFC PUSH6 0x2A4988C08FA9 0xD1 0x1F SWAP7 0xD0 PUSH21 0x4FD57FC964736F6C63430008000033000000000000 ","sha1":"7ff265a57896381e49377f9f9d2490d2f84d90cc","source":"// SPDX-License-Identifier: MIT\npragma solidity >=0.6.0 <0.9.0;\n\ncontract SimpleStorage {\n    uint256 public favoritenumber; // the public function makes the number visible\n\n    //other visibility functions include private, internal amd external\n    //how to write a storage function\n    function store(uint256 _favoritenumber) public {\n        favoritenumber = _favoritenumber;\n    }\n\n    // the view function is used to visualize things off the smartcontract which means it doesn't need any gas fee unlike other some functions\n    function retrive() public view returns (uint256) {\n        return favoritenumber;\n    }\n\n    // struct function can be used to create variable like function that stores multiple variables\n    struct People {\n        uint256 favorite;\n        string name;\n    }\n    People[] public people; // this creates a dynamic array that stores people's name and dynamic numbers\n    mapping(string => uint256) public nametofavnum;\n\n    function addperson(string memory _name, uint256 _favoritenumber) public {\n        // the memory keyword is used here because we are trying to specify that fact that the variables are temporal, until they are stored in the array\n        people.push(People(_favoritenumber, _name));\n        nametofavnum[_name] = _favoritenumber;\n    }\n}\n","sourcePath":"contracts/SimpleStorage.sol","type":"contract","deployment":{"address":"0xBc003FE5A99b72B9907a0091083714DC3d4360d6","chainid":"4","blockHeight":10411306}}